:020000040800F2
:1000000050070020ED110008390200083B020008EB
:100010003F020008430200084702000800000000F9
:100020000000000000000000000000004B0200087B
:100030004D020008000000004F02000851020008B5
:10004000071200080712000807120008071200082C
:10005000071200080712000807120008430A0008E8
:10006000071200080712000807120008071200080C
:1000700007120008071200080712000807120008FC
:1000800007120008071200080712000807120008EC
:1000900007120008071200080712000807120008DC
:1000A00007120008071200080712000807120008CC
:1000B00007120008071200080712000807120008BC
:1000C00007120008071200080712000807120008AC
:1000D000071200080712000807120008071200089C
:1000E000071200080712000807120008071200088C
:1000F000071200080712000807120008071200087C
:10010000071200080712000807120008071200086B
:10011000071200080712000807120008071200085B
:10012000071200080712000807120008071200084B
:1001300000F002F800F03AF80AA090E8000C8244BF
:100140008344AAF10107DA4501D100F02FF8AFF29C
:10015000090EBAE80F0013F0010F18BFFB1A43F0A5
:1001600001031847481D0000681D0000103A24BF15
:1001700078C878C1FAD8520724BF30C830C144BF0C
:1001800004680C607047000000230024002500264E
:10019000103A28BF78C1FBD8520728BF30C148BFEA
:1001A0000B6070471FB51FBD10B510BD01F043FEB9
:1001B0001146FFF7F7FF00F009F801F061FE03B404
:1001C000FFF7F2FF03BC01F065FE000000F0A4FFA2
:1001D0004FF4A06001F02AF800F00CFA00F027FCC0
:1001E00000F020FF00F0BDFA00201049088009E06F
:1001F00041200F490D4A128888540C480088401C41
:100200000A490880094800882028F1DB00200849B5
:1002100081F8200008E000F021FB00F020FF0448F6
:1002200000F075FA03490870F5E7000000000020AF
:10023000C800002002000020704700BFFEE700BF9A
:10024000FEE700BFFEE700BFFEE77047704770475C
:10025000704700000CB50020019000906C480068C9
:1002600040F480306A49086000BF6948006800F4C3
:10027000003000900198401C0190009818B9019836
:10028000B0F5A06FF1D16248006800F4003010B101
:100290000120009001E0002000900098012843D147
:1002A0005C48006840F010005A4908600846006841
:1002B00020F0030008600846006840F00200086073
:1002C00053484068524948600846406848600846BC
:1002D000406840F4806048600846406820F47C1024
:1002E00048600846406840F4E810486008460068E6
:1002F00040F08070086000BF4548006800F0007062
:100300000028F9D04248406820F003004049486086
:100310000846406840F00200486000BF3C48406822
:1003200000F00C000828F9D10CBD10B5FFF792FFC2
:1003300010BD10B53648006840F00100344908602F
:10034000084640683449084031494860084600681A
:10035000324908402E4908600846006820F4802091
:1003600008600846406820F4FE0048604FF41F0013
:100370008860FFF7DAFF4FF000602949086010BD80
:1003800010B5002100200022214B5B6803F00C0116
:1003900021B1042906D0082928D107E0214B224C9D
:1003A000236027E01F4B204C236023E0184B5B6841
:1003B00003F47010164B5B6803F48032022303EBE6
:1003C000904022B9194B4343174C23600DE0104B6A
:1003D0005B6803F4003323B1144B4343124C236096
:1003E00003E0104B4343104C236003E00D4B0E4CD5
:1003F000236000BF00BF064B5B68C3F303130C4CC4
:10040000E15C094B1B68CB40074C236010BD00002A
:1004100000100240002002400000FFF8FFFFF6FE3F
:1004200008ED00E000127A000400002000093D0001
:100430000800002070B50546002405E0601CC4B229
:10044000C82C01DD002070BD02213A4801F02BFCD0
:100450000028F3D02946374801F0D2FB002405E0FC
:10046000601CC4B2C82C01DD0020ECE7012131483A
:1004700001F019FC0028F3D02E4801F0C3FBC0B2F4
:10048000E1E700B587B00121082001F059FA012108
:10049000880301F062FA4FF46040ADF818001820AC
:1004A0008DF81B0003208DF81A0006A9224800F0E1
:1004B0008BFF4FF46041204801F033F80020ADF885
:1004C00004004FF48270ADF806000020ADF808007B
:1004D0000220ADF80A000120ADF80C004002ADF892
:1004E0000E003820ADF810000020ADF812000720F3
:1004F000ADF8140001A90F4801F0ACFA01210D4834
:1005000001F04DFBFF20FFF795FF07B000BD10B5D0
:100510000446084800884FF6C7710840054908801E
:1005200008460088204308800121024801F037FB7B
:1005300010BD000000380040000C01402DE9F041E2
:1005400007460D46164600209C4908603846FFF7CE
:1005500071FF8046002405E0FF20FFF76BFF285560
:10056000601CC4B2B442F7DB0120944908604046E5
:10057000BDE8F0812DE9F04107460C461546002004
:100580008E4908603846FFF755FF8046002605E093
:1005900014F8010BFFF74EFF701CC6B2AE42F7DB3A
:1005A0000120864908604046BDE8F0811CB584A161
:1005B00003C9CDE900010820FFF7A9FF052269461C
:1005C0003020FFF7D7FF052269461020FFF7B6FF5E
:1005D000002406E01DF80400A52800D003E0601CFC
:1005E000C4B2052CF6DB00BF052C01D001201CBDD8
:1005F0000020FCE700B587B00121082001F0A0F938
:100600004FF48050ADF8180010208DF81B00032027
:100610008DF81A0006A96C4800F0D6FE4FF4805100
:10062000694800F07EFF4FF4C070ADF8180006A9CD
:10063000654800F0C9FE4020ADF8180028208DF86C
:100640001B0006A9604800F0BFFE4FF4E0715E4851
:1006500000F069FFFFF715FF00215C4801F09FFAE9
:100660000020ADF804004FF48270ADF806000020C1
:10067000ADF80800ADF80A00ADF80C004FF40070BA
:10068000ADF80E001820ADF810000020ADF81200F3
:100690000720ADF8140001A94C4801F0DBF9012155
:1006A0004A4801F07CFA00204449091D08600120F5
:1006B0004749C1F89C0100BFFFF778FF0028FBD134
:1006C00007B000BD70B505460C4600203B490860E8
:1006D0002846FFF7AFFE06462046FFF7ABFE012097
:1006E0003B49C1F89C01304670BD70B504460020FE
:1006F000324908602046FFF79DFEFF20FFF79AFE73
:10070000054601203249C1F89C01284670BD70B5EC
:1007100005461020FFF7FBFE00202849091D086050
:1007200020222946A020FFF725FF01202849C1F8F3
:10073000A0010720FFF7D9FF044621462720FFF735
:10074000C1FF04F0100028B1FF21E120FFF7BAFF3C
:10075000102070BD04F0200008B12020F9E7FF2030
:10076000F7E710B500201549091D08600522194951
:100770003020FFF7FFFE052217492A20FFF7FAFE77
:1007800001212120FFF79EFF01212220FFF79AFF80
:100790001A212420FFF796FF28212520FFF792FF3A
:1007A0000F212620FFF78EFF0E212020FFF78AFF62
:1007B00001200749C1F8A00110BD00009C81214221
:1007C000A5A5A5A5A5000000000C0140003800402B
:1007D00000802142A21E0008A71E000800BF0100E1
:1007E000A0F10100FBD1704730B50346002400257D
:1007F00000BF08E0002503E00A20FFF7EFFF6D1CB3
:100800009D42F9D3641C052CF4D330BD70B500248F
:10081000002500BF1DE000F056FA1420FFF7E4FFAA
:1008200000F09AFA28B900F025F91420FFF7DCFF50
:100830000DE00A20FFF7D8FF00F049FA28B900F0D0
:1008400019F91420FFF7D0FF01E0012503E0601C37
:10085000C4B2052CDFDB00BF284670BD70B5002593
:100860007F480078102818D003DC60B101284AD1F5
:1008700004E0112848D0312845D100E048E0442068
:100880007849087044E0012075490870FFF7BEFF01
:1008900010B93120724908703AE000F0A8FA054614
:1008A000082D2AD2DFE805F029041115191D21258C
:1008B0006C48047859206B4908700846FFF727FFF9
:1008C000694908706748047018E05120654908704C
:1008D00014E054206349087010E048206149087012
:1008E0000CE04A205F49087008E04C205D49087020
:1008F00004E052205B49087000E000BF00BF002008
:100900005749087004E000BF00205549087000BF37
:1009100000BF70BD08B50121042001F01EF80120C0
:10092000ADF8000003208DF8020010208DF80300C0
:1009300069464E4800F048FDA020ADF800000320B5
:100940008DF8020010208DF803006946474800F03A
:100950003BFD4020ADF8000004208DF803006946FF
:10096000424800F031FD0421404800F0DAFD8021CA
:100970003E4800F0D6FD20213C4800F0D2FD08BDE5
:100980001FB50121082000F0DBFF0220ADF80000B8
:1009900004208DF8030003208DF8020069463448D6
:1009A00000F012FD0121084600F024FE0220029012
:1009B00000208DF80C000C208DF80D0001208DF822
:1009C0000E0002A801F0B4F9022001F000FA0221A1
:1009D000274800F0A6FD022001F00CFA022001F0E9
:1009E0001EFA07208DF8040000208DF805008DF810
:1009F000060001208DF8070001A800F01CFC1FBDB7
:100A000008B50121052000F09BFF1C20ADF8000077
:100A100003208DF8020010208DF80300694613486A
:100A200000F0D2FC1021114800F07BFD08BD10B58C
:100A3000FFF7E6FFFFF7A4FFFFF76CFF00F01AF8DF
:100A400010BD10B5022001F0D9F938B100F0D0F88E
:100A5000022001F0CFF9022001F0E1F910BD000001
:100A600018000020C80000200200002000080140FB
:100A7000000C014010B50821DF4800F052FD642051
:100A8000FFF7B2FE0821DC4800F04DFD6420FFF7BF
:100A9000ABFE0821D84800F044FD6420FFF7A4FE17
:100AA0000421D54800F03FFD6420FFF79DFE04219E
:100AB000D14800F036FD6420FFF796FE10BD10B55A
:100AC000062000F028FA3521172000F0A1F90520B2
:100AD000FFF78AFE062000F01EFA0321892000F0AD
:100AE00097F90520FFF780FE4321CF2000F090F911
:100AF0000520FFF779FE0221CB2000F089F90321C0
:100B0000112000F085F9BD480078402810D100215F
:100B10001E2000F07DF90F21192000F079F918212D
:100B20001B2000F075F92C211D2000F071F90FE059
:100B300000211E2000F06CF93F21192000F068F917
:100B400048211B2000F064F91F211D2000F060F9EE
:100B50000520FFF749FE0421CD2000F059F94C2172
:100B6000172000F055F90120FFF73EFE0021B920C3
:100B700000F04EF94F21CF2000F04AF9FF216F20FD
:100B800000F046F910BD10B508209C490870FFF729
:100B900096FF0021BD2000F03BF94821172000F00E
:100BA00037F90520FFF720FE80213C2000F030F9C6
:100BB00007213E2000F02CF9FF21382000F028F911
:100BC00007213A2000F024F90021402000F020F90C
:100BD0000821422000F01CF90021442000F018F9FF
:100BE0000821462000F014F90120FFF7FDFD10BD9B
:100BF00010B500242B2000F08EF9814908700021E7
:100C0000292000F005F90021022000F001F97C48BC
:100C1000007800F01000C8B1B22000F07CF9212863
:100C200014D1BF2000F077F935280FD1BA2000F099
:100C300072F90446002C05DD042C03DC10207149F8
:100C4000087006E011206F49087002E011206D491C
:100C5000087000212B2000F0DBF800211C2000F0A0
:100C6000D7F80021292000F0D3F80021022000F05D
:100C7000CFF800212B2000F0CBF80021BA2000F0A3
:100C8000C7F80021BC2000F0C3F80121082000F0C3
:100C9000BFF80021082000F0BBF810BD70B500259A
:100CA00000240BE0B22000F036F9212801D1012503
:100CB00006E01420FFF798FD601CC4B20A2CF1DB9B
:100CC00000BF284670BD10B5FFF75DFF10BD10B521
:100CD0001021352000F09CF80A21B52000F098F88A
:100CE0000A21B62000F094F809211C2000F090F8A9
:100CF0002021BD2000F08CF80121082000F088F8A8
:100D00000520FFF771FD0021082000F081F8052083
:100D1000FFF76AFDFFF7C2FF08B9002010BDFF21F1
:100D2000B22000F075F80621372000F071F8062196
:100D3000372000F06DF80520FFF756FD0B211C2031
:100D400000F066F81021292000F062F80021BD2093
:100D500000F05EF80120E1E770B50126002441E0D3
:100D6000FFF79CFF08B900263EE02748015DC1203F
:100D700000F04EF80021C32000F04AF804210820BA
:100D800000F046F80120FFF72FFD0021082000F0B9
:100D90003FF80120FFF728FD002512E004EB840056
:100DA0001A4901EB8000405D00B90CE004EB8400BF
:100DB000164A02EB8000415D052000F029F8681C0E
:100DC000C5B2142DEADB00BF2946B92000F020F897
:100DD000FF21B22000F01CF80421372000F018F8A1
:100DE000601CC4B2072CBBDB00BF304670BD10B521
:100DF000C52000F090F810BD000801401900002047
:100E00001A00002018000020A70000201B0000206E
:100E10002DE9F04105460E460024042704218048B0
:100E200000F081FB01217E4800F07DFB0120FFF7EF
:100E3000DBFC00BF1EE007F08000802804D1802189
:100E4000774800F06EFB03E08021754800F06BFBF3
:100E50000120FFF7C9FC2021714800F064FB7806EF
:100E6000070E0120FFF7C0FC20216D4800F059FB60
:100E7000601CC4B2082CDEDB00241EE005F08000FC
:100E8000802804D18021664800F04BFB03E08021DC
:100E9000634800F048FB0120FFF7A6FC20216048D2
:100EA00000F041FB6806050E0120FFF79DFC2021A4
:100EB0005B4800F036FB601CC4B2082CDEDB00246B
:100EC0001EE006F08000802804D18021544800F004
:100ED00028FB03E08021524800F025FB0120FFF7AA
:100EE00083FC20214E4800F01EFB7006060E0120F8
:100EF000FFF77AFC20214A4800F013FB601CC4B2C3
:100F0000082CDEDB0120FFF76FFC0421444800F0D1
:100F100008FBBDE8F0812DE9F04105460024A0461C
:100F20000026052704213E4800F0FDFA01213C4837
:100F300000F0F9FA0120FFF757FC00BF1EE007F0B0
:100F40008000802804D18021354800F0EAFA03E0CF
:100F50008021334800F0E7FA0120FFF745FC20210B
:100F60002F4800F0E0FA7806070E0120FFF73CFC5E
:100F700020212B4800F0D5FA601CC4B2082CDEDB1F
:100F800000241EE005F08000802804D18021244840
:100F900000F0C7FA03E08021214800F0C4FA0120E4
:100FA000FFF722FC20211E4800F0BDFA6806050E5E
:100FB0000120FFF719FC2021194800F0B2FA601C4B
:100FC000C4B2082CDEDB0120FFF70EFC00241BE07E
:100FD0007006060E4021124800F089FA8046012072
:100FE000FFF702FC20210E4800F09DFAB8F1010F36
:100FF00001D146F001060120FFF7F6FB2021084849
:1010000000F08FFA601CC4B2082CE1DB0120FFF76E
:10101000EBFB0421024800F084FA3046BDE8F08181
:101020000008014008B501210D2000F089FC0121D4
:10103000354800F09AFA4FF41940ADF80000482006
:101040008DF803006946314800F0BEF94FF4007096
:10105000ADF8000069462E4800F0B6F908BD10B59D
:101060004FF48071294800F042FAB8B14FF40061A2
:10107000264800F03CFA88B14FF48051234800F034
:1010800036FA58B14FF40041204800F030FA28B148
:101090004FF400711E4800F02AFAF8B90A2000F057
:1010A00078F84FF48071194800F021FA18B95120EE
:1010B0001849087026E04FF40061144800F017FA50
:1010C00018B94820134908701CE04FF480510F48AC
:1010D00000F00DFA18B94C200E49087012E04FF4D8
:1010E00000410A4800F003FA18B952200949087073
:1010F00008E04FF40071064800F0F9F910B95420E7
:101100000449087010BD00000002300000080140D2
:10111000000C0140C800002010B56FF0040000F082
:10112000D4F82E4800682E49B0FBF1F02D49087024
:101130000846007800EB4001C1EBC0104FF6FF718C
:1011400001EAC0002849088010BD0146254A1278EE
:101150004A434FF0E0235A6100229A611A4612690D
:1011600042F001021A6100BF4FF0E022106900F066
:1011700001021AB100F48032002AF5D04FF0E022CB
:10118000126922F001024FF0E0231A6100229A61F5
:1011900070470146144A12884A434FF0E0235A61CF
:1011A00000229A611A46126942F001021A6100BFD8
:1011B0004FF0E022106900F001021AB100F4803211
:1011C000002AF5D04FF0E022126922F001024FF020
:1011D000E0231A6100229A61704700000400002099
:1011E00000127A00AE000020B000002009488047BD
:1011F00009480047FEE7FEE7FEE7FEE7FEE7FEE7F9
:10120000FEE7FEE7FEE7FEE704480549054A064B10
:10121000704700003303000831010008500100202E
:1012200050070020500300205003002031490143A3
:10123000314A1160704770B5002100230F22C47835
:1012400004B32D4C246804F4E064C4F5E064210A7E
:10125000C1F10403CA40447804FA03F184781440CD
:1012600021430901254C0678A155047804F01F0597
:101270000124AC4005786D11AD0005F1E025C5F8FD
:10128000004109E0047804F01F050124AC401C4D26
:101290000678761145F8264070BD1A4A0A40024386
:1012A000154B1B1F1A60704739B1134A121D126883
:1012B0000243114B1B1D1A6006E00F4A121D1268F3
:1012C00082430D4B1B1D1A607047042808D14FF054
:1012D000E021096941F004014FF0E022116107E0CB
:1012E0004FF0E021096921F004014FF0E022116183
:1012F000704700000000FA050CED00E000E400E09B
:1013000080E100E080FFFF1F10B50446CC48844216
:1013100008D10121042000F02DFB0021042000F061
:1013200029FB46E0C748844208D10121082000F08B
:1013300021FB0021082000F01DFB3AE0C248844256
:1013400008D10121102000F015FB0021102000F031
:1013500011FB2EE0BD48844208D10121202000F07D
:1013600009FB0021202000F005FB22E0B848844260
:1013700008D10121402000F0FDFA0021402000F0BA
:10138000F9FA16E0B348844208D10121802000F028
:10139000F1FA0021802000F0EDFA0AE0AE48844224
:1013A00007D10121801500F0E5FA0021A01500F019
:1013B000E1FA10BD10B50121084600F0DBFA00216A
:1013C000012000F0D7FA10BD2DE9F04102460025BA
:1013D0000026002000230024002791F803C00CF011
:1013E0000F0591F803C00CF0100CBCF1000F03D0F6
:1013F00091F802C04CEA050591F800C0BCF1000F5D
:1014000031D0146800202BE04FF0010C0CFA00F3EF
:10141000B1F800C00CEA03069E4220D183004FF0D1
:101420000F0C0CFA03F7BC4305FA03FC4CEA040466
:1014300091F803C0BCF1280F06D14FF0010C0CFA53
:1014400000FCC2F814C00AE091F803C0BCF1480FD8
:1014500005D14FF0010C0CFA00FCC2F810C0401C82
:101460000828D1D31460B1F800C0BCF1FF0F34DDFF
:10147000546800202EE000F1080C4FF0010808FA33
:101480000CF3B1F800C00CEA03069E4221D18300A0
:101490004FF00F0C0CFA03F7BC4305FA03FC4CEABF
:1014A000040491F803C0BCF1280F05D100F1080C29
:1014B00008FA0CF8C2F8148091F803C0BCF1480F88
:1014C00007D100F1080C4FF0010808FA0CF8C2F837
:1014D0001080401C0828CED35460BDE8F0814FF640
:1014E000FF710180022181700421C17070470246A2
:1014F000002093680B400BB1012000E000207047F2
:101500000146886880B2704702460020D3680B40CD
:101510000BB1012000E0002070470146C86880B28E
:10152000704701617047416170470AB1016100E095
:1015300041617047C16070474FF480320A43826155
:101540008161826182698269704702460020434B53
:1015500018684FF68073184040EA021008433F4B6A
:10156000186070473E49C8617047F0B50A460023CD
:1015700000240021002500F00046B6F1004F02D102
:10158000364EF16901E0354E7168C0F3034583B210
:1015900000F44016B6F5401F08D121F070612F4EBF
:1015A000766826F070662D4F7E6012E000F480169B
:1015B000B6F5801F06D1032606FA05F4A14341F0D3
:1015C000706106E0460D360103FA06F6B14341F0BC
:1015D000706122B1460D360103FA06F6314300F080
:1015E0000046B6F1004F02D11C4EF16101E01B4EE6
:1015F0007160F0BD30B500228B071C0F0F2303FA7A
:1016000004F2164B08338C1053F824309343134CD8
:1016100008348D1044F8253023468C1053F82430BC
:101620008C07240F00FA04F423430C4C08348D106B
:1016300044F8253030BD0A49DC31086070470000AD
:1016400000080140000C014000100140001401405E
:1016500000180140001C0140002001400000014032
:1016600000002042DF48006840F00100DD490860CA
:1016700008464068DC490840DA4948600846006886
:10168000DA490840D74908600846006820F48020FD
:1016900008600846406820F4FE0048604FF41F00D0
:1016A00088607047CF49096821F48031CD4A1160C4
:1016B0001146096821F480211160B0F5803F03D004
:1016C000B0F5802F0ED106E0C649096841F480319B
:1016D000C44A116007E0C349096841F4A021C14A26
:1016E000116000E000BF00BF704710B50146002246
:1016F000002300204A11012A02D1BA4C236806E0D7
:10170000022A02D1B74C236A01E0B64C636A01F0A9
:101710001F02012494401C400CB1012000E0002075
:1017200010BD38B5002000900024002500BF3120F6
:10173000FFF7DBFF05460098401C00900098B0F5CD
:10174000A06F01D0002DF2D03120FFF7CEFF08B1FD
:10175000012400E00024204638BD01460020A14AB3
:10176000106820F0F80040EAC10010607047A049FE
:1017700008607047024600209A4B586820F47C109D
:1017800042EA01031843974B58607047984908662E
:10179000704701460020934A506820F00300084338
:1017A000506070478F48406800F00C007047014659
:1017B00000208C4A506820F0F000084350607047C9
:1017C00001460020874A506820F4E06008435060DA
:1017D000704701460020834A506820F4605040EA78
:1017E000C1005060704729B17E4A527A02437D4B56
:1017F0005A7204E07B4A527A82437A4B5A7270479B
:101800007B49D8310860704701460020754A50680E
:1018100020F440400843506070470021714A203254
:101820001170704A82F82010012802D004280AD1D1
:1018300004E001216B4A2032117005E00521694A5C
:101840002032117000E000BF00BF70476949086096
:1018500070476449096A0143624A116270476549E9
:1018600044390860704730B500210022002400236D
:101870005C4D6D6805F00C0121B1042905D00829E3
:1018800023D105E05C4D056022E05B4D05601FE063
:10189000544D6D6805F47012524D6D6805F4803436
:1018A000022505EB92421CB9544D554305600BE0EF
:1018B0004C4D6D6805F400351DB1504D5543056024
:1018C00002E04D4D5543056002E04B4D056000BF01
:1018D00000BF444D6D6805F0F0010909484D6B5C8F
:1018E0000568DD4045603F4D6D6805F4E061090A1B
:1018F000434D6B5C4568DD4085603A4D6D6805F48D
:101900006051C90A3E4D6B5C4568DD40C560354D90
:101910006D6805F44041890B3A4D6B5CC568B5FBB9
:10192000F3F5056130BD29B12E4A526902432D4BB2
:101930005A6104E02B4A526982432A4B5A6170472C
:1019400029B1284A92690243264B9A6104E0254A4C
:1019500092698243234B9A61704729B1214AD26927
:101960000243204BDA6104E01E4AD26982431D4BD8
:10197000DA61704729B11B4AD2680243194BDA6019
:1019800004E0184AD2688243164BDA60704729B1E6
:10199000144A12690243134B1A6104E0114A126996
:1019A0008243104B1A6170471249403908607047F2
:1019B0000F49C86470470B49C87170470948406AAD
:1019C00040F0807007494862704701460020054A90
:1019D00092680A400AB1012000E0002070470149E6
:1019E00088727047001002400000FFF8FFFFF6FE0B
:1019F000000042428004424200127A0000093D0089
:101A0000B2000020C200002010B50446BE48844247
:101A100008D101218014FFF7ADFF0021A014FFF7CA
:101A2000A9FF16E0B948844208D101210014FFF74C
:101A3000AEFF00212014FFF7AAFF0AE0B448844259
:101A400007D10121C013FFF7A2FF0021E013FFF728
:101A50009EFF10BD10B50022028802F441520B888F
:101A60004C8823438C882343CC8823430C8923430D
:101A70004C8923438C892343CC8923431A43028016
:101A8000838B4FF2FF74234083830B8A038210BD44
:101A90002DE9F04F85B005460C464FF000090227AE
:101AA0004FF000084FF0010B0026B246A88B4FF212
:101AB00040010840A88302202884B5F81C90A06843
:101AC000022801D100BF38E0A08810B94FF0010B07
:101AD00001E04FF0020B8D48854200D100E000BFCD
:101AE0006846FFF7C0FEDDF800A0E088B0F5007F93
:101AF0000AD14FEA1A2000EB80004000A168B0FB39
:101B0000F1F0401D86B20BE04FEA4B10BAFBF0F04B
:101B100000EB80004000A168B0FBF1F0401D86B2F0
:101B20000A20B6FBF0F606F00108A6EB0800C0F3A9
:101B30004F074FF6FF7000EA0828022F01DBFF2F46
:101B400002DD02274FF00008E08840EA0800384331
:101B50002884A088A1890843618808432188084314
:101B600040F4006040EA0909A5F81C9005B0BDE802
:101B7000F08F0021018041808180C18001814181FD
:101B80008181C1810721018270470021018041804C
:101B90008180C1800221816000218181704721B153
:101BA000028842F04002028004E002884FF6BF73D0
:101BB0001A400280704721B1828B42F48062828396
:101BC00004E0828B4FF6FF331A408283704730B5B2
:101BD000002400230C110125A540ABB21AB1858861
:101BE0001D43858002E085889D43858030BD1AB104
:101BF00083880B43838002E083888B438380704714
:101C0000818170470146888970474FF6FF62914293
:101C100004D0028842F48072028004E002884FF609
:101C2000FF631A400280704721B1828842F00402AB
:101C3000828004E082884FF6FB731A4082807047EE
:101C400002884FF2FF731A40028002880A43028022
:101C50007047018841F480510180704721B10288AA
:101C600042F40052028004E002884DF6FF731A40ED
:101C70000280704702460020012901D0108B00E04D
:101C8000908A70470146088A7047B1F5804F04D1A9
:101C9000028842F48042028004E002884BF6FF731F
:101CA0001A40028070470246002013890B400BB196
:101CB000012000E000207047CA4302817047F0B560
:101CC0000246002000240023002501F00F07012612
:101CD000BE40B4B20B1101269E40B3B2968806EA0C
:101CE00003051689264016B10DB1012000E0002041
:101CF000F0BD10B5002201F00F040123A3409AB2F9
:101D0000D343038110BD0000003001400038004083
:101D1000003C0040002044490860091D0860091D7E
:101D20000860091D086041483F4914310860704748
:101D300000213D498279002A3AD00A461268036898
:101D40009A430B461A600A1D126803689A430B1DDA
:101D50001A60027911440A6803681A430A60324A19
:101D60000832126803689A432F4B08331A601A1D11
:101D7000126803689A432C4B0C331A604279102A7C
:101D80000ED11A1F126803681A43274B08331A60D2
:101D90001A1D126803681A43234B0C331A600DE0B6
:101DA0002149427911440A6803681A430A6005E030
:101DB000027911440A6803689A430A607047002157
:101DC000016001710C214171002181717047164938
:101DD000103109680143144A1032116070470146FE
:101DE0000020114A143212680A400AB1012000E0B2
:101DF000002070470C4914310860704701460020EC
:101E00000022094B1B6803EA0102074B14331B68CD
:101E10000B4013B10AB1012000E0002070470249D5
:101E2000143108607047000000040140FFFF0F00FC
:101E3000704770477047754600F028F8AE460500B9
:101E40006946534620F00700854618B020B5FFF7D5
:101E5000DBF9BDE820404FF000064FF000074FF0DF
:101E600000084FF0000B21F00701AC46ACE8C009B8
:101E7000ACE8C009ACE8C009ACE8C0098D467047C1
:101E80000446AFF300802046FEF799F900487047FA
:101E9000EC00002001491820ABBEFEE7260002003E
:101EA000704734431010023443101002CC1E000857
:101EB00000000020C80000006C010008941F00080A
:101EC000C80000208806000088010008000000000B
:101ED00000A24A0400000000000000000102030408
:101EE0000607080900000079756520646F6E672099
:101EF00063686F6E672066656E67007169616E204A
:101F00006A696E000000000000000000000000741C
:101F1000696E670000000000000000000000000083
:101F2000000000686F7520747569000000000000F3
:101F3000000000000000006A696120737500000065
:101F400000000000000000000000007869616E677A
:101F5000207A756F0000000000000000000000788B
:101F600069616E6720796F75000000000000000055
:101F70000000000102030405060700000000000045
:101F80000000010203040102030406070809020419
:041F9000060800003F
:0400000508000131BD
:00000001FF
